:100000000C946C030C9494030C9494030C9494033C
:100010000C9494030C9494030C9494030C94940304
:100020000C9494030C9494030C941A050C948C0572
:100030000C9494030C9494030C9494030C949403E4
:100040000C9494030C9494030C9494030C949403D4
:100050000C9494030C9494030C9494030C94640DEA
:100060000C9494030C9494030C9494030C949403B4
:100070000C9494030C9494030C9494030C949403A4
:100080000C9494030C9494030C9494030C94940394
:100090000C9494030C9494030C9494030C94940384
:1000A0000C9494030C9494030C949403F0F89C8E99
:1000B0008783878E9CF8F00000FEFF030303030391
:1000C000070EFCF80000FEFF0303030303070EFC0A
:1000D000F80000FFFF00000000000000FFFF00002C
:1000E000FEFF8383838383C7EE7C380000F8FC0E19
:1000F00007030303070EFCF800003F7FE0C0808089
:10010000C0E07F3FFFFF01010101010101FFFF008E
:1001100000FFFF0C0C0C0C1C3E77E3C100007FFFBE
:10012000C0C0C0C0C0E0703F1F00001F3F70E0C0F3
:10013000C0C0E0703F1F00007FFFC1C1C1C1C1E36B
:10014000773E1C00001F3F70E0C0C0C0E0703F1F42
:10015000000000000001FFFF01000000D5F08D1439
:10016000A1C881CFD9F1AF2000080B000202020123
:10017000000904000001020200000524001001052E
:10018000240101010424020605240600010705815B
:100190000310004009040100020A000000070502E4
:1001A0000240000007058302400000040309041216
:1001B000010002EF020140412336800001010203E9
:1001C0000141726475696E6F204C4C43004172644A
:1001D00075626F790000000000003E5B4F5B3E3EA1
:1001E0006B4F6B3E1C3E7C3E1C183C7E3C181C57E3
:1001F0007D571C1C5E7F5E1C00183C1800FFE7C387
:10020000E7FF0018241800FFE7DBE7FF30483A0655
:100210000E2629792926407F050507407F05253FC1
:100220005A3CE73C5A7F3E1C1C08081C1C3E7F14AD
:10023000227F22145F5F005F5F06097F017F0066F7
:1002400089956A606060606094A2FFA29408047E51
:10025000040810207E201008082A1C08081C2A0800
:10026000081E101010100C1E0C1E0C30383E3830BA
:10027000060E3E0E06000000000000005F000000B9
:1002800007000700147F147F14242A7F2A122313E7
:1002900008646236495620500008070300001C22FB
:1002A00041000041221C002A1C7F1C2A08083E082D
:1002B000080080703000080808080800006060002E
:1002C00020100804023E5149453E00427F40007222
:1002D000494949462141494D331814127F10274599
:1002E0004545393C4A4949314121110907364949B7
:1002F0004936464949291E000014000000403400D8
:10030000000008142241141414141400412214088B
:1003100002015909063E415D594E7C1211127C7F43
:10032000494949363E414141227F4141413E7F4951
:100330004949417F090909013E414151737F08083C
:10034000087F00417F41002040413F017F08142287
:10035000417F404040407F021C027F7F0408107FA5
:100360003E4141413E7F090909063E4151215E7FE0
:1003700009192946264949493203017F01033F40B3
:1003800040403F1F2040201F3F4038403F6314083B
:10039000146303047804036159494D43007F4141CC
:1003A000410204081020004141417F04020102047F
:1003B0004040404040000307080020545478407FEC
:1003C000284444383844444428384444287F385426
:1003D00054541800087E090218A4A49C787F0804CD
:1003E000047800447D40002040403D007F102844B8
:1003F0000000417F40007C047804787C0804047885
:100400003844444438FC1824241818242418FC7C4C
:1004100008040408485454542404043F44243C4031
:1004200040207C1C2040201C3C4030403C44281094
:1004300028444C9090907C4464544C4400083641CD
:1004400000000077000000413608000201020402AB
:100450003C2623263C1EA1A161123A4040207A3856
:1004600054545559215555794121545478412155B9
:1004700054784020545579400C1E5272123955550B
:100480005559395454545939555454580000457CE1
:10049000410002457D420001457C40F0292429F0BD
:1004A000F0282528F07C545545002054547C547C79
:1004B0000A097F4932494949323248484832324A6A
:1004C0004848303A4141217A3A42402078009DA084
:1004D000A07D39444444393D4040403D3C24FF2404
:1004E00024487E4943662B2FFC2F2BFF0929F62039
:1004F000C0887E090320545479410000447D413076
:1005000048484A32384040227A007A0A0A727D0D01
:1005100019317D2629292F28262929292630484DB9
:100520004020380808080808080808382F10C8AC08
:10053000BA2F102834FA00007B000008142A142275
:1005400022142A14089500220095AA005500AAAA90
:1005500055AA55AA000000FF00101010FF00141447
:1005600014FF001010FF00FF1010F010F01414140E
:10057000FC001414F700FF0000FF00FF1414F40443
:10058000FC141417101F10101F101F1414141F0038
:10059000101010F0000000001F101010101F10109D
:1005A0001010F010000000FF1010101010101010AC
:1005B00010FF10000000FF140000FF00FF00001FEC
:1005C00010170000FC04F414141710171414F4048A
:1005D000F40000FF00F714141414141414F700F7B7
:1005E000141414171410101F101F141414F41410E2
:1005F00010F010F000001F101F0000001F1400007A
:1006000000FC140000F010F01010FF10FF14141480
:10061000FF141010101F00000000F010FFFFFFFF7C
:10062000FFF0F0F0F0F0FFFFFF0000000000FFFF20
:100630000F0F0F0F0F38444438447C2A2A3E147E93
:1006400002020606027E027E026355494163384477
:10065000443C04407E201E2006027E020299A5E74B
:10066000A5991C2A492A1C4C7201724C304A4D4DE6
:10067000303048784830BC625A463D3E49494900CE
:100680007E0101017E2A2A2A2A2A44445F444440EA
:10069000514A444040444A51400000FF0103E08079
:1006A000FF000008086B6B083612362436060F0967
:1006B0000F06000018180000001010003040FF0165
:1006C00001001F01011E00191D1712003C3C3C3C9B
:1006D0000000000000002B1311241FBECFEFDAE052
:1006E000DEBFCDBF12E0A0E0B1E0E6E4FAE202C076
:1006F00005900D92A23DB107D9F729E0A2EDB2E035
:1007000001C01D92AE3EB207E1F713E0CCE6D3E0A4
:1007100004C02197FE010E941615CB36D107C9F7F8
:100720000E94AE0D0C9421150C94000020916905D7
:10073000211103C08FEF9FEF08955FB7F89422E077
:100740002093E9002091F20030E01216130614F411
:1007500021E030E0422FFC0184E6415038F0289837
:10076000809393099091F1009193F7CF2115310572
:1007700021F08091F200882319F05FBFC90108952C
:100780008BE68093E800F9CF2FB7F89483E080934D
:10079000E9009091E800892F807295FF04C0909144
:1007A000F20080E4891B2FBF089580918B0981118D
:1007B0000DC082E08093870984E0809388091092BD
:1007C0008A091092890981E080938B0987E899E072
:1007D0000895CF93DF931F92CDB7DEB76983DC0115
:1007E000ED91FC910280F381E02D41E050E0BE01EB
:1007F0006F5F7F4F09950F90DF91CF91089583E050
:100800008093E9008091F200882319F08AE38093B5
:10081000E80008950E94C40390E00895CF93DF9309
:100820001F92CDB7DEB7FC018485958597FD05C085
:100830002FEF3FEF358724870BC0CE0101960E9432
:100840009603019719F4898190E002C08FEF9FEF22
:100850000F90DF91CF9108950F931F93CF93DF9364
:100860001F92CDB7DEB78C01FC018485958597FF7B
:100870000EC0CE0101960E949603019719F489815A
:1008800090E002C08FEF9FEFF80195878487F80111
:10089000848595850F90DF91CF911F910F910895D9
:1008A000FC018485958597FD0BC09FB7F89482E085
:1008B0008093E9008091F2009FBF90E00196089537
:1008C0009FB7F89482E08093E9008091F2009FBF87
:1008D00090E0089540918309509184092091810905
:1008E0003091820942175307B4F49091E800957053
:1008F000E1F39091E80092FD19C08093F10080919E
:1009000083099091840901968F739927892B19F493
:100910008EEF8093E800809183099091840901967D
:10092000909384098093830981E0089580E008957D
:10093000DF92EF92FF920F931F93CF93DF93D82E06
:100940008A017B01E40EF51EEB01CE15DF0571F087
:10095000D7FE03C0FE01849101C088810E946A0411
:1009600021968111F2CF8FEF9FEF01C0C801DF9177
:10097000CF911F910F91FF90EF90DF9008950F930B
:100980001F93CF93DF931F92CDB7DEB782E08983A9
:1009900042E450E069E671E080E80E9498040E9419
:1009A000D503DC0112960D911C91139701151105C9
:1009B00089F0D801ED91FC910280F381E02DBE0118
:1009C0006F5F7F4FC801099597FD04C0F80100854E
:1009D0001185ECCF89810F90DF91CF911F910F91FD
:1009E0000895615030F02091F100FC0120830196C0
:1009F000F8CF289884E6809393090895EAE6F5E015
:100A0000A0E0B8E000800EBC8111012C1197A0FD80
:100A1000FDCF0192B9F70DB4089580E0EAE6F5E064
:100A200081118FEF002481938193819381930394AB
:100A3000D1F708951F920F920FB60F9211248F9342
:100A40009F938091E1009091E100937F9093E1006A
:100A500083FF0FC01092E90091E09093EB00109299
:100A6000EC0092E39093ED001092690598E090936A
:100A7000F00082FF20C093E09093E9009091F20093
:100A8000992319F09AE39093E800909186099923AD
:100A900039F090918609915090938609992389F1B4
:100AA00090919309992339F09091930991509093E3
:100AB0009309992341F184FF10C08091E2008E7E5A
:100AC00081608093E2008091E1008F7E8093E1005D
:100AD000809168058E7E806111C080FF16C0809174
:100AE000E2008E7E80618093E2008091E1008E7E44
:100AF0008093E100809168058E7E81608093680517
:100B000004C05D9ACDCF289AD6CF9F918F910F9038
:100B10000FBE0F901F9018951F920F920FB60F9255
:100B20001124CF92DF92EF92FF920F931F932F9396
:100B30003F934F935F936F937F938F939F93AF9365
:100B4000BF93EF93FF93CF93DF93CDB7DEB76C974F
:100B5000DEBFCDBF1092E9008091E80083FFFBC1AA
:100B600068E0CE0145960E94F10482EF8093E80090
:100B70008D8987FF05C09091E80090FFFCCF03C0EE
:100B80009EEF9093E800982F907609F0C6C09E895A
:100B90004F89588D2F89F88C91110CC0803829F419
:100BA000809167058093F10002C01092F1001092CD
:100BB000F10045C1913051F4811141C141305105DD
:100BC00009F03DC1809167058D7F0BC0933061F4C2
:100BD000811135C14130510509F031C1809167055E
:100BE0008260809367052BC1953049F48091E800BD
:100BF00080FFFCCF822F80688093E30020C1963075
:100C000009F05EC00B8D1C8D22E01092E90010925D
:100C1000840910928309F21232C010928209109254
:100C200081090E94BF0499E0BE016F5F7F4FDB0125
:100C3000E92F1D92EA95E9F79983FA8291E09E8364
:100C400090EA98879AEF99872091830930918409D7
:100C5000275F3F4F3C832B838D831092E9001092D6
:100C6000840910928309109382090093810949E055
:100C700050E080E00E9498040E94BF04E0C01093FE
:100C80008209009381090E94D503DC0112960D911F
:100C90001C9113970115110509F4BBC0D801ED9102
:100CA000FC910480F581E02DBE016B5E7F4FC80191
:100CB0000995009709F0C7C0F80100851185EACFB2
:100CC000973009F445C1983021F481E08093F10018
:100CD000B6C0993009F0B3C0837009F039C1E5EAB4
:100CE000F2E081E031E096E32081211109C08EE736
:100CF0008093EA001092EA008F89809369059FC073
:100D00008093E9003093EB0021912093EC009093C5
:100D1000ED008F5F873041F7EACF8B8D9C8D10926D
:100D2000E9001092840910928309909382098093BC
:100D30008109898D811153C08E899D89913A49F429
:100D4000813209F005C147E050E06CE972E080E0D3
:100D5000BBC0913209F0FCC0833269F48F89988D51
:100D6000A0E0B0E08093980290939902A0939A0239
:100D7000B0939B0264C0803269F48091E80082FFE6
:100D8000FCCF67E08CE992E00E94F1048BEF809346
:100D9000E80055C0823209F052C08F898093A302C7
:100DA000EEEFFFE7859194918B3F9C4D19F0E0E0C9
:100DB000F8E002C0EEEFFAE080919C0290919D0273
:100DC000A0919E02B0919F02803B9440A105B10585
:100DD00009F09EC08091A30280FF79C099C00E9453
:100DE000D503FC01028113810115110509F4B0C07E
:100DF000D801ED91FC910190F081E02DBE016B5E78
:100E00007F4FC801099581111AC0F801008511852D
:100E1000EBCFF1E0FF1609F44EC0F3E0FF1298C0EB
:100E20008F89882309F44AC0823089F440E867E05A
:100E30008DEC91E00E94F612882309F489C08EEFB0
:100E40008093E80088C018161906CCF381C0813061
:100E500029F440E86BE081EC91E0ECCF833009F0BD
:100E600077C00E94D503DC011296ED90FC90139799
:100E70008E010F5F1F4F6801E114F10479F0D70173
:100E8000ED91FC910680F781E02DB801C70109952D
:100E9000080F111DF701E084F184EECFD8011C92F8
:100EA000F60101900020E9F73197BF016C197D0927
:100EB00040E0C601BFCF6FEA71E002C06BEA71E0AB
:100EC000FB01449150E080E80E949804B8CFEE3FC7
:100ED0002AE0F20751F0808191818737A7E79A07CE
:100EE00021F09093FF0A8093FE0A87E797E79183AA
:100EF000808380916000809385099BE088E10FB634
:100F0000F894A895809360000FBE9093600097CFEF
:100F1000808191818737974709F091CFA89580917B
:100F200060008861809360008091850980936000F3
:100F3000EE3FBAE0FB0739F08091FE0A9091FF0A7C
:100F4000918380837CCF1092FF0A1092FE0A77CFA4
:100F500081E28093EB006C960FB6F894DEBF0FBE73
:100F6000CDBFDF91CF91FF91EF91BF91AF919F9155
:100F70008F917F916F915F914F913F912F911F9131
:100F80000F91FF90EF90DF90CF900F900FBE0F90DA
:100F90001F9018958F929F92AF92BF92CF92DF923F
:100FA000EF92FF926B017C010E943F0D4B015C01AF
:100FB000C114D104E104F104F1F00E943F0DDC0101
:100FC000CB0188199909AA09BB09883E9340A1055C
:100FD000B10570F321E0C21AD108E108F10888EEEA
:100FE000880E83E0981EA11CB11CC114D104E10439
:100FF000F10419F7DDCFFF90EF90DF90CF90BF9015
:10100000AF909F908F9008958F929F92AF92BF92D2
:10101000CF92DF92EF92FF920F931F93CF93DF93C4
:101020006C017B018A018091A302882309F45CC0D2
:1010300080916905882309F457C08091680580FF75
:1010400005C08091E00082608093E000E801B12C4F
:101050008AEFA82E93E0892E2AE3922E209711F48E
:10106000BB20D9F10E94C40381110AC0AA94AA200E
:10107000D9F161E070E080E090E00E94CA07EECF15
:10108000282F30E0C217D3070CF48C2F9FB7F894A9
:101090008092E9002091E80025FF1DC0282F30E054
:1010A000C21BD30BF701815020F041914093F10016
:1010B000FACFE20EF31EBB2019F09092E8000AC0AE
:1010C0008091E80085FD07C09092E800BB24B394AE
:1010D000209709F0B12C9FBFC1CF5D9884E6809323
:1010E00086091016110644F081E090E0F601938322
:1010F000828380E090E001C0C801DF91CF911F9111
:101100000F91FF90EF90DF90CF90BF90AF909F90A6
:101110008F900895CF92DF92EF92FF920F931F93DB
:10112000CF93DF936C017A018B01C0E0D0E0CE1544
:10113000DF0581F0D8016D918D01D601ED91FC9113
:101140000190F081E02DC6010995892B11F02196BF
:10115000EECF7E01C701DF91CF911F910F91FF90DC
:10116000EF90DF90CF90089590E1282F81E061FD0E
:1011700084E060FD880F62FD8295687F969FD001B4
:101180001124A20FA659BA4F9C91982B40FF982783
:101190009C9308952F923F924F925F926F927F920D
:1011A0008F929F92AF92BF92CF92DF92EF92FF9277
:1011B0000F931F93CF93DF93CDB7DEB727970FB66B
:1011C000F894DEBF0FBECDBF9F838E836A30A1F43B
:1011D000DC0155962C91559751968D919C91529783
:1011E000B8E02B9F800D911D1124EE81FF81928B21
:1011F000818B108A1786B5C06D3009F4B2C0AE81FC
:10120000BF811F960D911C91509700381105BCF0BD
:10121000EE81FF812589422F50E087859089F6E095
:101220002F9F800D911D1124AE81BF8150969C93FC
:101230008E931F9756962C9121117DC092C0EE81FE
:10124000FF8181889288F0E48F1691040CF7AE81BB
:10125000BF8155963C90C801B5E03B9E800D911D25
:10126000112418161906A4F6432C512CC401E8E0E9
:101270003E9E800D911D1124181619064CF6AE8164
:10128000BF815496BC91BC83EE81FF81F389FD83BD
:1012900025E0629FB0011124CB018B529E4F3C018F
:1012A0001982F3012490F981F53009F4212C5401BD
:1012B00028E02B8320FE03C03D813A8302C08C814D
:1012C0008A839A81911104C0AC81BD81AB17F9F07A
:1012D00078018E2D801B8315D0F465018C2D8A1921
:1012E000831588F4E0E8EE16F10448F4F0E4CF1634
:1012F000D10428F44A81B601C7010E94B4082FEF37
:10130000C21AD20AEBCF3FEFE31AF30AE2CF2694D8
:101310008B8181508B83A40CB51C8111CBCF99811B
:101320009F5F9983040D151DD30111963D019630E1
:1013300009F0B7CF6DCF6AEF64039001659F300D60
:10134000112420583F4F281739075CF4AE81BF8124
:10135000ED91FC9111970190F081E02D6AE0CD01B3
:10136000099581E090E027960FB6F894DEBF0FBE96
:10137000CDBFDF91CF911F910F91FF90EF90DF9044
:10138000CF90BF90AF909F908F907F906F905F9025
:101390004F903F902F9008950895089580E090E039
:1013A00008950E941C152F923F924F925F926F9268
:1013B0007F928F929F92AF92BF92CF92DF92EF92E5
:1013C000FF920F931F93CF93DF93CDB7DEB72F9785
:1013D0000FB6F894DEBF0FBECDBF1C012A013B0142
:1013E00009831A832B833C8380E1F10111928A9552
:1013F000E9F710912C051093E4098091D30288231A
:1014000009F443C020E030E040E852ECC301B201EF
:101410000E94111587FD39C020E030E040E453E41C
:10142000C301B2010E94241487FF2FC020E030E0E6
:1014300040E852EC69817A818B819C810E94111570
:1014400087FD23C020E030E040E053E469817A81E9
:101450008B819C810E94241487FF17C05BC011966A
:101460008C91119748855985481B510987FD5395E3
:101470008A859B85841795070CF486C02F5F159687
:101480001213EDCFFD81F7FF9FC01091D2021830EB
:1014900008F0CEC0C501B4010E943014062FC70168
:1014A000B6010E943014B62E69817A818B819C81AD
:1014B0000E9429146B01C301B2010E9429147B010F
:1014C0004B018B0C911C3601600E711CE814F90461
:1014D0000CF0AEC05601D7FE02C0A12CB12CC30146
:1014E000E1E46E16710414F080E490E0A816B906E9
:1014F0006CF4F0E8EF16F10428F4412FB501C701B0
:101500000E94B4082FEFA21AB20AE9CF4FEFE41AF3
:10151000F40ADCCF5091D2025D83C301B2010E9474
:101520002914062F69817A818B819C810E9429145C
:101530006E83C701B6010E9430146F83C501B401E8
:101540000E943014362FA4EDB2E020E0802F002E50
:10155000000C990B99878887EF818E2F90E04427A4
:101560005527481B590B5B874A878E81082E000C34
:10157000990B9D878C87832F90E0EE27FF27E81B30
:10158000F90BFF87EE877CCF13968C91139790E031
:10159000481759070CF072CF12968C9112974C8510
:1015A0005D85481B510987FD5395EE85FF85E4173E
:1015B000F5070CF063CF14968C91149790E04817C0
:1015C00059070CF05BCF15C0183708F05ECF25E047
:1015D000129FF0011124EC52FD4F4D814083018395
:1015E0005E8152838F81838334831F5F1093E4096C
:1015F0004CCF8C91E82FF0E094E0F595E7959A9523
:10160000E1F7EE0FFF1FE20DF31D8F7041E050E098
:1016100060E070E004C0440F551F661F771F8A9575
:10162000D2F780819181482B592B5183408326CF5B
:101630008091E40980932C05C1012F960FB6F89490
:10164000DEBF0FBECDBFDF91CF911F910F91FF90F5
:10165000EF90DF90CF90BF90AF909F908F907F9052
:101660006F905F904F903F902F9008952D9A08951E
:10167000BC0180E090E00C94CA078FB18095807F18
:10168000669B88601C9B846008950C94A1138F92C4
:101690009F92AF92BF92CF92DF92EF92FF920F9301
:1016A0001F93CF93DF93CDB7DEB760970FB6F89453
:1016B000DEBF0FBECDBF1092D302812C912C80E8EB
:1016C000A82E8FE3B82EC12CD12C90EAE92E92E4FB
:1016D000F92E00E010E09801B901A801CE010196B1
:1016E0000E94D309812C912C24E1A22E22E4B22E57
:1016F000C12CD12C30E8E32E3FE3F32E00E010E0C4
:101700009801B901A801CE0101960E94D30900E019
:1017100010E0980140E050E06EE972E4CE010196DD
:101720000E94D30946015701C12CD12C40EAE42E76
:1017300042E4F42E00E010E020E132E440E050E02A
:10174000BA01CE0101960E94D309C12CD12C50E4DC
:10175000E52E51E4F52E00E010E028ED31E440E004
:1017600050E0BA01CE0101960E94D309C12CD12CC0
:1017700068EEE62E61E4F62E00E010E028ED31E49C
:1017800040E050E060EB71E4CE0101960E94D30985
:10179000C12CD12C70E9E72E71E4F72E00E010E0A7
:1017A00028ED31E440E050E064E772E4CE010196B8
:1017B0000E94D309C12CD12CE4E0EE2EE2E4FE2EEF
:1017C00000E010E020E931E440E050E0BA01CE0151
:1017D00001960E94D309C12CD12CF8E1EF2EF2E43E
:1017E000FF2E00E010E020E931E440E050E064E248
:1017F00072E4CE0101960E94D309C12CD12CA0E342
:10180000EA2EA1E4FA2E00E010E020E131E440E00D
:1018100050E0BA01CE0101960E94D309C12CD12C0F
:10182000B0E5EB2EB1E4FB2E00E010E020E131E466
:1018300040E050E068E971E4CE0101960E94D309CE
:10184000C12CD12C10E6E12E11E4F12E00E010E0C5
:1018500020E131E440E050E068E272E4CE0101961C
:101860000E94D309C12CD12C00E7E02E01E4F02E18
:1018700000E010E020E131E440E050E060E872E494
:10188000CE0101960E94D30981E08093D30283E0C8
:101890008093D2027501640100E010E02CE032E494
:1018A00040E050E060E871E4CE0101960E94D30967
:1018B00000E010E02CE032E440E050E064E672E446
:1018C000CE0101960E94D30900E010E020ED31E442
:1018D00040E050E060E171E4CE0101960E94D3093E
:1018E00000E010E020ED31E440E050E060EC71E415
:1018F000CE0101960E94D30900E010E020ED31E412
:1019000040E050E064E172E4CE0101960E94D30908
:1019100000E010E020ED31E440E050E060E472E4EB
:10192000CE0101960E94D30900E010E020ED31E4E1
:1019300040E050E06CE772E4CE0101960E94D309CA
:1019400000E010E028E831E440E050E060E771E4B6
:10195000CE0101960E94D30900E010E028E831E4AE
:1019600040E050E060EF71E4CE0101960E94D3099F
:1019700000E010E028E831E440E050E06CE272E47E
:10198000CE0101960E94D30900E010E028E831E47E
:1019900040E050E060E772E4CE0101960E94D30976
:1019A00000E010E020E031E440E050E060E171E46C
:1019B000CE0101960E94D30900E010E020E031E45E
:1019C00040E050E068EA71E4CE0101960E94D3093C
:1019D00000E010E020E031E440E050E068EE71E427
:1019E000CE0101960E94D30900E010E020E031E42E
:1019F00040E050E060E372E4CE0101960E94D3091A
:101A000000E010E020E031E440E050E064E572E402
:101A1000CE0101960E94D30900E010E020E031E4FD
:101A200040E050E066E872E4CE0101960E94D309DE
:101A300000919002109191022091920230919302B4
:101A40004091940250919502609196027091970294
:101A5000CE0101960E94D30960960FB6F894DEBFBE
:101A60000FBECDBFDF91CF911F910F91FF90EF90EF
:101A7000DF90CF90BF90AF909F908F9008953FB729
:101A8000F8948091EA099091EB09A091EC09B0914A
:101A9000ED0926B5A89B05C02F3F19F00196A11DA1
:101AA000B11D3FBFBA2FA92F982F8827820F911DF4
:101AB000A11DB11DBC01CD0142E0660F771F881F3B
:101AC000991F4A95D1F708951F920F920FB60F9262
:101AD00011242F933F938F939F93AF93BF93809144
:101AE000E5099091E609A091E709B091E8093091E4
:101AF000E90923E0230F2D3720F40196A11DB11D24
:101B000005C026E8230F0296A11DB11D2093E90907
:101B10008093E5099093E609A093E709B093E8095B
:101B20008091EA099091EB09A091EC09B091ED093F
:101B30000196A11DB11D8093EA099093EB09A09332
:101B4000EC09B093ED09BF91AF919F918F913F91B7
:101B50002F910F900FBE0F901F901895CF93DF938A
:101B6000CDB7DEB7AA970FB6F894DEBF0FBECDBFD4
:101B7000789484B5826084BD84B5816084BD85B568
:101B8000826085BD85B5816085BD80916E00816074
:101B900080936E001092810080918100826080931A
:101BA000810080918100816080938100809180001C
:101BB0008160809380008091910082608093910089
:101BC000809191008160809391008091900081606C
:101BD000809390008091C10084608093C1008091C7
:101BE000C10082608093C1008091C10081608093B8
:101BF000C1008091C30081608093C3008091C000C8
:101C000082608093C0008091C20081608093C20096
:101C100080917A00846080937A0080917A0082605B
:101C200080937A0080917A00816080937A0080911D
:101C30007A00806880937A00109269051092670597
:101C4000109268058091D70081608093D70080EA68
:101C50008093D80089B5806189BD89B5826089BDCE
:101C600009B400FEFDCF61E070E080E090E00E94EA
:101C7000CA078091D8008F7C80618093D8008091C2
:101C8000E000807F8093E0008091E1008E7E809371
:101C9000E1008DE08093E200559A209A81EC8093D8
:101CA0007C0085B1806F85B984B1877E84B984B1A9
:101CB000876E84B95E9A5F988AB1806D8AB9769A88
:101CC0006E9881B3806F81BB899880B38D7080BB23
:101CD00080E58CBD81E08DBD85E090E00E94380BF1
:101CE0005F9A85E090E00E94380B5E985C98ECE586
:101CF000F1E084918EBD00000DB407FEFDCF31965A
:101D000021E0E936F207A9F75C9A81E88093640044
:101D10008091650081608093650080E00E94FE04F0
:101D20000E943D0B87FF24C05C9885EA8EBD0000B1
:101D30000DB407FEFDCF5C9A2E982F982D988091B8
:101D4000640080628093640081E083BF889513BE45
:101D5000FCCF2D980E943D0B8478843871F00E944E
:101D60003D0B8471843131F188EC90E00E94380B96
:101D70000E943D0B82FDEDCF3AC00E94360B88ECED
:101D800090E00E94380B2F9882E090E00E94A1130F
:101D90008F3F29F06FEF82E090E00E94A91384EF5B
:101DA00091E00E94380B2F9A0E943D0B8478843872
:101DB000D9F3D5CF0E94360B88EC90E00E94380B07
:101DC0002E9882E090E00E94A113882329F060E021
:101DD00082E090E00E94A91384EF91E00E94380B0A
:101DE0002E9A0E943D0B84718431D9F3BDCF0E949D
:101DF000360B82E090E00E94450B882319F03E9A52
:101E00003F9A02C03E983F9881E090E00E94450BC7
:101E1000482F4470942E81FF85C041112E9800EF09
:101E20001FEFB8E0EB2EF12C0E943D0B86FF05C0A2
:101E30002E9A2F9A0E94360B75C0992029F00430F3
:101E4000110511F42E9A2F9881E00E94FE0498014A
:101E500017FF04C022273327201B310B277033279D
:101E6000C80117FD0796A3E095958795AA95E1F718
:101E700017FF05C00197D701A21BB30B9D01AC0151
:101E80005695542F44275795479546595A4FA0E0E9
:101E9000B0E03701621A730A8F3FEFEF9E074CF4F0
:101EA0000196A85ABF4F40585F4FA03BB105A1F71C
:101EB0001EC05A01F4E9AF0EB11C6A0160E070E087
:101EC0008F3FEFEF9E0709F46FC3FB01EA0FFB1F83
:101ED000E455FF4FE491F0E01F01022E01C0220CF7
:101EE0000A94EAF7F60184882828248A5DC380E0F2
:101EF0000E94FE048FE090E00E94380B0F5F1F4F9E
:101F00000931110509F090CF992011F02F9A2D98E1
:101F100080E991E00E94380B0E94360B8AE699E036
:101F20000E945C1382E390E00E94380B0E943D0BFC
:101F30008111F8CF80E1809375090E940D05109200
:101F40007C0910927B0910927A09109279091092FB
:101F50002C0581E08093D30283E08093D20210921B
:101F6000660510926505109264051092630580E085
:101F700090E0A0E2B2E48093940290939502A09343
:101F80009602B093970280E090E0ACE0B2E48093D8
:101F9000900290939102A0939202B093930280E0FA
:101FA0000E94FE04AE014F5F5F4F3A01E2E08E2EC9
:101FB000912C01E010E0EE24E39475E0F72E8FB74A
:101FC000F8944091E5095091E6096091E709709114
:101FD000E8098FBF80917609942F981B892F9091E3
:101FE0007709992329F08093780910927709D4C250
:101FF00090917509891740F48F5F891708F0CCC25A
:10200000E3BE889513BEC8C2E09277094093760973
:102010008091710990917209019690937209809351
:1020200071090E940D0510927C0910927B09109293
:102030007A091092790910922C050E94470B809121
:102040006505909166058130910509F465C082307F
:10205000910509F49FC0892B09F077C2809163052F
:1020600090916405009759F08130910561F08230BC
:10207000910569F4A1E0A9A7BEE0BAA708C0E0E114
:10208000E9A71AA604C0FEE0F9A720E12AA7019655
:10209000833091052CF4909364058093630504C00C
:1020A000109264051092630510926205109261050A
:1020B00049A5242F440F330B6AA584E16802A001CF
:1020C000112440505F4FF30180E090E0019621938E
:1020D0003193DA01A20FB31F2C91022E000C330BA7
:1020E00037FFF4CF81509048880F991FFC0132963A
:1020F000E60DF71DA9E3B5E0E615F70529F03291E5
:1021000022912D933D93F8CFFC01E55CFA4FAFEFA0
:10211000BFEFB183A08379C1809161059091620581
:10212000FC01EE0FFF1FE55CFA4F2081318137FF84
:1021300005C0109266051092650507C2880F991FA9
:10214000FC01E75CFA4F80819181F89EF001F99ED5
:10215000F00D1124EC52FD4FA4E3B5E08F2D01905A
:102160000D928A95E1F7F29EF001F39EF00D112495
:10217000EC52FD4FAFE2B5E08F2D01900D928A95A4
:10218000E1F7909266058092650510922E051092F7
:102190002D05DBC180912D0590912E058130910593
:1021A00009F4D3C01CF4892B49F0CFC182309105CA
:1021B00009F494C0039709F436C1C7C1609135058D
:1021C000062E000C770B880B990B0E9461145B01A3
:1021D0006C012090940230909502409096025090AD
:1021E0009702A20191010E941115181684F420E0B3
:1021F00030E040E85EE3C201B1010E94B813609391
:102200009402709395028093960290939702209087
:102210009402309095024090960250909702A2014D
:102220009101C601B5010E94241487FF10C020E06F
:1022300030E040E85EE3C201B1010E94B713609351
:102240009402709395028093960290939702209146
:102250009402309195024091960250919702C601E6
:10226000B5010E942414811170C160913105062EC0
:10227000000C770B880B990B0E9461145B016C01B9
:1022800020909002309091024090920250909302E0
:10229000A20191010E942414811104C010932E0503
:1022A00000932D05A2019101C601B5010E942414DD
:1022B00087FF04C090922E0580922D05A201910106
:1022C000C601B5010E94111518160CF03EC1E3E0DD
:1022D000F0E0F0932E05E0932D0537C160913105B4
:1022E000062E000C770B880B990B0E9461145B0182
:1022F0006C01209090023090910240909202509098
:102300009302A20191010E94241487FF83C020E060
:1023100030E040E85EE3C201B1010E94B713609370
:102320009002709391028093920290939302209175
:102330009002309191024091920250919302C60115
:10234000B5010E942414811100C160913005062E50
:10235000000C770B880B990B0E9461145B016C01D8
:1023600020909402309095024090960250909702EF
:10237000A20191010E941115181684F420E030E0AA
:1023800040E85EE3C201B1010E94B8136093940279
:1023900070939502809396029093970220909402F6
:1023A000309095024090960250909702A2019101C0
:1023B000C601B5010E94241487FF10C020E030E060
:1023C00040E85EE3C201B1010E94B713609394023A
:1023D00070939502809396029093970220919402B5
:1023E000309195024091960250919702C601B50135
:1023F0000E9424148111A9C0809161059091620509
:102400000196909362058093610510936605009391
:1024100065059BC0A0929002B0929102C092920278
:10242000D092930284CF60913005062E000C770B7A
:10243000880B990B0E9461145B016C01209094023F
:10244000309095024090960250909702A20191011F
:102450000E941115181684F420E030E040E85EE395
:10246000C201B1010E94B813609394027093950267
:102470008093960290939702209094023090950258
:102480004090960250909702A2019101C601B501B9
:102490000E94241487FF10C020E030E040E85EE393
:1024A000C201B1010E94B713609394027093950228
:1024B0008093960290939702209194023091950216
:1024C0004091960250919702C601B5010E942414D2
:1024D00081113BC060913105062E000C770B880BF3
:1024E000990B0E9461145B016C0120909002309066
:1024F00091024090920250909302A20191010E9499
:102500001115181684F420E030E040E85EE3C201C3
:10251000B1010E94B813609390027093910280936E
:1025200092029093930220919002309191024091F7
:10253000920250919302C601B5010E9424148111A8
:1025400004C010932E0500932D050E943D0B87FFBC
:1025500020C01092660510926505109264051092D5
:10256000630580E090E0A0E2B2E48093940290934F
:102570009502A0939602B093970280E090E0ACE0C1
:10258000B2E48093900290939102A0939202B09350
:10259000930280E00E94FE04A0E0B0E0AB2B09F4BF
:1025A0000ECD0E94000007CD2115310591F0FB01F1
:1025B000EA0FFB1FE455FF4FE491F0E01F01062CEA
:1025C00002C0359427940A94E2F7F5018080282808
:1025D00020826F5F7F4FFFEFAF1ABF0AEFEFCE1A77
:1025E000DE0A6835710509F06BCC5ACCDF92EF92A8
:1025F000FF920F931F93CF93DF93D82EF92EE42EE3
:10260000062F10E0C8010196880F0E946A0483E03B
:102610000E946A04CD2DDF2D0C0F1D1FC017D1079E
:1026200089F0E7FE03C0FE01849101C088810E9409
:102630006A04F82E80E00E946A048F21219681119D
:10264000EDCF01C081E0DF91CF911F910F91FF90FD
:10265000EF90DF900895E4E9F9E01382128288EEAA
:1026600093E0A0E0B0E084839583A683B7838FEAEC
:1026700092E0918380838FEF9FEF95878487EAE6CE
:10268000F9E0138212821186128680E18387108618
:102690001782158681EC92E0918380838FEC92E023
:1026A00095838483108A1786128A118A81E0838B2E
:1026B000148A858B168A08950F931F93CF93DF9307
:1026C0008C0181E090E00E94450B80FF32C08AE0DF
:1026D00090E00E94450B9FEF980F9E3F50F522E33C
:1026E00030E0D80150963C932E931F9728E330E0BA
:1026F00052963C932E935197CBE0D0E0D801ED91C8
:10270000FC910190F081E02D682FC8010995CE0160
:102710000E94450B2196C131D10581F780E00E94CE
:10272000FE0488EE93E0DF91CF911F910F910C94FE
:10273000380BDF91CF911F910F91089504970C945E
:102740005C13F999FECF92BD81BDF89A992780B5A7
:102750000895262FF999FECF1FBA92BD81BD20BDE5
:102760000FB6F894FA9AF99A0FBE01960895505848
:10277000BB27AA270E94CF130C94D7140E94C91418
:1027800038F00E94D01420F039F49F3F19F426F459
:102790000C94C6140EF4E095E7FB0C94C014E92FDA
:1027A0000E94E81458F3BA17620773078407950765
:1027B00020F079F4A6F50C940A150EF4E0950B2E92
:1027C000BA2FA02D0B01B90190010C01CA01A00183
:1027D0001124FF27591B99F0593F50F4503E68F1DE
:1027E0001A16F040A22F232F342F4427585FF3CF1F
:1027F000469537952795A795F0405395C9F77EF4F0
:102800001F16BA0B620B730B840BBAF09150A1F038
:10281000FF0FBB1F661F771F881FC2F70EC0BA0FBE
:10282000621F731F841F48F4879577956795B79546
:10283000F7959E3F08F0B0CF9395880F08F0992741
:10284000EE0F9795879508950E949C1408F481E0F7
:1028500008950E9430146894B1110C940B150895DA
:102860000E94F01488F09F5798F0B92F9927B7511C
:10287000B0F0E1F0660F771F881F991F1AF0BA9524
:10288000C9F714C0B13091F00E940A15B1E0089563
:102890000C940A15672F782F8827B85F39F0B93F55
:1028A000CCF3869577956795B395D9F73EF49095D7
:1028B0008095709561957F4F8F4F9F4F0895E89455
:1028C00009C097FB3EF490958095709561957F4F78
:1028D0008F4F9F4F9923A9F0F92F96E9BB27939526
:1028E000F695879577956795B795F111F8CFFAF436
:1028F000BB0F11F460FF1BC06F5F7F4F8F4F9F4F67
:1029000016C0882311F096E911C0772321F09EE8C4
:10291000872F762F05C0662371F096E8862F70E02A
:1029200060E02AF09A95660F771F881FDAF7880F04
:102930009695879597F90895990F0008550FAA0B5A
:10294000E0E8FEEF16161706E807F907C0F01216C2
:102950001306E407F50798F0621B730B840B950BC5
:1029600039F40A2661F0232B242B252B21F408951A
:102970000A2609F4A140A6958FEF811D811D0895B7
:1029800097F99F6780E870E060E008959FEF80EC22
:10299000089500240A9416161706180609060895C5
:1029A00000240A9412161306140605060895092E2B
:1029B0000394000C11F4882352F0BB0F40F4BF2B9A
:1029C00011F460FF04C06F5F7F4F8F4F9F4F0895DA
:1029D00057FD9058440F551F59F05F3F71F04795D0
:1029E000880F97FB991F61F09F3F79F087950895B5
:1029F000121613061406551FF2CF4695F1DF08C0D4
:102A0000161617061806991FF1CF869571056105F0
:102A100008940895E894BB2766277727CB0197F998
:102A200008950E949C1408F48FEF0895EE0FFF1F85
:102A30000590F491E02D099481E090E0F8940C94D5
:062A40002115F894FFCF00
:102A4600FF0000000301010804040907070C0F0A30
:102A56000A00000001FF000005010108040409073F
:102A6600070C0F0A0A0000000300FF020304010816
:102A760004040907070C0F0A0A000000030003FFFD
:102A86000304010804040907070C0F0A0A000000E2
:102A960003050304FF04050804040907070C0F0ACD
:102AA6000A0000000105000405FF050804040907E3
:102AB600070C0F0A0A000000010600000506FF08C1
:102AC60004040907070C0F0A0A00000003050304A3
:102AD600080405FF07080907070C0D0A0A0000008D
:102AE6000305030408040508FF080907070C0D0A77
:102AF6000A000000030503040904050809FF090785
:102B0600070C0F0A0A000000030503040904050860
:102B1600090AFF07070E0F0A0A000000030503044F
:102B26000804050B070809FF0B0C0D0E0A00000030
:102B3600030503040804050C0708090CFF0C0D0E19
:102B46000F000000030503040804050C07080F0C1A
:102B56000DFF0D0E0F000000030503040904050C0C
:102B6600070A0F0C0D0EFF0E0F00000003050304ED
:102B760009040508090A0F0C0D0E0FFF0F000000CF
:102B86000305030409040508090A10070D0E0F10B2
:102B9600FF00000000000000000000000000000030
:102BA600000000000000000000000000000000001F
:102BB600000000000000000000000000000000000F
:102BC60000000000000000000000000000000000FF
:102BD6000000C6C20000C6C2FFFFFFFF00E1000002
:102BE6000000000000C1808100000000000000E934
:102BF6000304080A04FF0350040E042C040000001A
:102C060000CA088A08CE09CD095C13FCFF00009EA5
:022C16001300A9
:00000001FF
